:100000000C9446000C948B000C94F4000C941D018D
:100010000C9446010C9458000C9458000C94580011
:100020000C9458000C9458000C9458000C945800F0
:100030000C9458000C9458000C9458000C945800E0
:100040000C9458000C9458000C9458000C945800D0
:100050000C9458000C9458000C9458000C945800C0
:100060000C9458000C9458000C9458000C945800B0
:100070000C9458000C9458000C9458000C945800A0
:100080000C9458000C9458000C94580011241FBE76
:10009000CFEFD0E1DEBFCDBF11E0A0E0B1E001C005
:1000A0001D92AC31B107E1F70E946F010C94CA01B7
:1000B0000C94000011BA8FE082BB08951AB8109218
:1000C000900089E189B986E08093950088E18AB93A
:1000D00008955D9BFECF8CB90895EF92FF92CF9368
:1000E000DF93E82EE7017E01F92EE70102C00E94AE
:1000F000690089918823D9F7DF91CF91FF90EF9024
:100100000895F8940E945A008FEF80936A0081E06E
:1001100089BF789408951F920F920FB60F920BB675
:100120000F9211242F933F934F935F936F937F937D
:100130008F939F93AF93EF93FF9340910001309182
:100140000101209102019091030180910401F0913D
:100150000501E0910601A0910701642F6F5F51E056
:10016000641708F050E0530F41E0531708F040E0E7
:10017000420F31E0421708F030E0390F21E0391723
:1001800008F020E0280F91E0281708F090E09F0F7A
:1001900081E09F1708F080E08E0F71E08E1708F065
:1001A00070E07A0F609300015093010140930201C7
:1001B000309303012093040190930501809306017D
:1001C00070930701FF91EF91AF919F918F917F9174
:1001D0006F915F914F913F912F910F900BBE0F90B8
:1001E0000FBE0F901F9018951F920F920FB60F928F
:1001F0000BB60F9211242F933F934F935F936F93FE
:100200007F938F939F93AF93BF93EF93FF9381E37C
:100210000E946900FF91EF91BF91AF919F918F91E3
:100220007F916F915F914F913F912F910F900BBEF6
:100230000F900FBE0F901F9018951F920F920FB640
:100240000F920BB60F9211242F933F934F935F930E
:100250006F937F938F939F93AF93BF93EF93FF938E
:1002600082E30E946900FF91EF91BF91AF919F914E
:100270008F917F916F915F914F913F912F910F904F
:100280000BBE0F900FBE0F901F9018951F920F92EC
:100290000FB60F920BB60F9211242F933F934F93EB
:1002A0005F936F937F938F939F93AF93BF93EF93DE
:1002B000FF9383E30E946900FF91EF91BF91AF919B
:1002C0009F918F917F916F915F914F913F912F916E
:1002D0000F900BBE0F900FBE0F901F9018950E94AD
:1002E0005E000E948100809100019091010168E010
:1002F00071E040E150E00E94850188E091E00E94B9
:100300006D008AE00E946900EECFFB019F01E89436
:100310004230C4F04532B4F44A3029F497FB1EF45D
:10032000909581959F4F642F77270E94B601805D3D
:100330008A330CF0895D8193CB010097A1F716F405
:100340005DE251931082C9010C94A601DC01FC010D
:10035000672F71917723E1F7329704C07C916D93F9
:1003600070836291AE17BF07C8F30895AA1BBB1B29
:1003700051E107C0AA1FBB1FA617B70710F0A61BA5
:10038000B70B881F991F5A95A9F780959095BC01C6
:08039000CD010895F894FFCFA0
:00000001FF
