:100000000C9446000C948C000C94B5000C94DE000B
:100010000C9407010C9430010C9459010C94AB0121
:100020000C9482010C9458000C9458000C945800C5
:100030000C9458000C9458000C9458000C945800E0
:100040000C9458000C9458000C9458000C945800D0
:100050000C9458000C9458000C9458000C945800C0
:100060000C9458000C9458000C9458000C945800B0
:100070000C9458000C9458000C9458000C945800A0
:100080000C9458000C9458000C94580011241FBE76
:10009000CFEFD0E1DEBFCDBF11E0A0E0B1E001C005
:1000A0001D92AE31B107E1F70E94D4010C94D90141
:1000B0000C94000011BA8FEF82BB08951AB8109209
:1000C000900089E189B986E08093950088E18AB93A
:1000D00008955D9BFECF8CB90895EF92FF92CF9368
:1000E000DF93E82EE7017E01F92EE70102C00E94AE
:1000F000690089918823D9F7DF91CF91FF90EF9024
:100100000895F8940E945A0085E580936A001ABE0B
:100110008FE089BF789408951F920F920FB60F92C7
:100120000BB60F9211242F933F934F935F936F93CE
:100130007F938F939F93AF93BF93EF93FF9380E34E
:100140000E946900FF91EF91BF91AF919F918F91B4
:100150007F916F915F914F913F912F910F900BBEC7
:100160000F900FBE0F901F9018951F920F920FB611
:100170000F920BB60F9211242F933F934F935F93DF
:100180006F937F938F939F93AF93BF93EF93FF935F
:1001900081E30E946900FF91EF91BF91AF919F9120
:1001A0008F917F916F915F914F913F912F910F9020
:1001B0000BBE0F900FBE0F901F9018951F920F92BD
:1001C0000FB60F920BB60F9211242F933F934F93BC
:1001D0005F936F937F938F939F93AF93BF93EF93AF
:1001E000FF9382E30E946900FF91EF91BF91AF916D
:1001F0009F918F917F916F915F914F913F912F913F
:100200000F900BBE0F900FBE0F901F9018951F926E
:100210000F920FB60F920BB60F9211242F933F93AC
:100220004F935F936F937F938F939F93AF93BF93FE
:10023000EF93FF9383E30E946900FF91EF91BF91D9
:10024000AF919F918F917F916F915F914F913F916E
:100250002F910F900BBE0F900FBE0F901F9018950F
:100260001F920F920FB60F920BB60F9211242F937D
:100270003F934F935F936F937F938F939F93AF932E
:10028000BF93EF93FF9384E30E946900FF91EF9186
:10029000BF91AF919F918F917F916F915F914F919E
:1002A0003F912F910F900BBE0F900FBE0F901F909C
:1002B00018951F920F920FB60F920BB60F92112442
:1002C0002F933F934F935F936F937F938F939F935E
:1002D000AF93BF93EF93FF9385E30E946900FF9173
:1002E000EF91BF91AF919F918F917F916F915F91AE
:1002F0004F913F912F910F900BBE0F900FBE0F901B
:100300001F9018951F920F920FB60F920BB60F9277
:1003100011242F933F934F935F936F937F938F930A
:100320009F93AF93BF93EF93FF9387E30E9469007E
:10033000FF91EF91BF91AF919F918F917F916F91BD
:100340005F914F913F912F910F900BBE0F900FBE79
:100350000F901F9018951F920F920FB60F920BB629
:100360000F9211242F933F934F935F936F937F933B
:100370008F939F93AF93BF93EF93FF9386E30E9476
:100380006900FF91EF91BF91AF919F918F917F9104
:100390006F915F914F913F912F910F900BBE0F90F6
:1003A0000FBE0F901F9018950E945E000E94810062
:0603B000FFCFF894FFCF1F
:00000001FF
