:100000000C9446000C948E010C9465010C943C01F8
:100010000C9413010C94EA000C94C1000C94980009
:100020000C946F000C9450000C9450000C945000F1
:100030000C9450000C9450000C9450000C94500000
:100040000C9450000C9450000C9450000C945000F0
:100050000C9450000C9450000C9450000C945000E0
:100060000C9450000C9450000C9450000C945000D0
:100070000C9450000C9450000C9450000C945000C0
:100080000C9450000C9450000C94500011241FBE8E
:10009000CFEFD0E1DEBFCDBF0E94B7010C94BC0111
:1000A0000C94000011BA8FEF82BB08951AB8109219
:1000B000900089E189B986E08093950088E18AB94A
:1000C00008955D9BFECF8CB90895F8940E9452006C
:1000D0008FEF80936A008FE089BF789408951F9214
:1000E0000F920FB60F920BB60F9211242F933F93DE
:1000F0004F935F936F937F938F939F93AF93BF9330
:10010000EF93FF9387E30E946100FF91EF91BF910E
:10011000AF919F918F917F916F915F914F913F919F
:100120002F910F900BBE0F900FBE0F901F90189540
:100130001F920F920FB60F920BB60F9211242F93AE
:100140003F934F935F936F937F938F939F93AF935F
:10015000BF93EF93FF9386E30E946100FF91EF91BD
:10016000BF91AF919F918F917F916F915F914F91CF
:100170003F912F910F900BBE0F900FBE0F901F90CD
:1001800018951F920F920FB60F920BB60F92112473
:100190002F933F934F935F936F937F938F939F938F
:1001A000AF93BF93EF93FF9385E30E946100FF91AC
:1001B000EF91BF91AF919F918F917F916F915F91DF
:1001C0004F913F912F910F900BBE0F900FBE0F904C
:1001D0001F9018951F920F920FB60F920BB60F92A9
:1001E00011242F933F934F935F936F937F938F933C
:1001F0009F93AF93BF93EF93FF9384E30E946100BB
:10020000FF91EF91BF91AF919F918F917F916F91EE
:100210005F914F913F912F910F900BBE0F900FBEAA
:100220000F901F9018951F920F920FB60F920BB65A
:100230000F9211242F933F934F935F936F937F936C
:100240008F939F93AF93BF93EF93FF9383E30E94AA
:100250006100FF91EF91BF91AF919F918F917F913D
:100260006F915F914F913F912F910F900BBE0F9027
:100270000FBE0F901F9018951F920F920FB60F92FE
:100280000BB60F9211242F933F934F935F936F936D
:100290007F938F939F93AF93BF93EF93FF9382E3EB
:1002A0000E946100FF91EF91BF91AF919F918F915B
:1002B0007F916F915F914F913F912F910F900BBE66
:1002C0000F900FBE0F901F9018951F920F920FB6B0
:1002D0000F920BB60F9211242F933F934F935F937E
:1002E0006F937F938F939F93AF93BF93EF93FF93FE
:1002F00081E30E946100FF91EF91BF91AF919F91C7
:100300008F917F916F915F914F913F912F910F90BE
:100310000BBE0F900FBE0F901F9018951F920F925B
:100320000FB60F920BB60F9211242F933F934F935A
:100330005F936F937F938F939F93AF93BF93EF934D
:10034000FF9380E30E946100FF91EF91BF91AF9115
:100350009F918F917F916F915F914F913F912F91DD
:100360000F900BBE0F900FBE0F901F9018950E941C
:0C03700056000E946500FFCFF894FFCFFC
:00000001FF
